:020000040800F2
:1000000038050020290200083702000839020008DC
:100010003B0200083D0200083F020008000000000B
:100020000000000000000000000000004102000885
:1000300043020008000000004502000847020008D3
:100040004902000849020008490200084902000864
:100050004902000849020008490200084902000854
:100060004902000849020008490200084902000844
:100070004902000849020008490200084902000834
:100080004902000849020008490200084902000824
:100090004902000849020008490200084902000814
:1000A0004902000849020008490200084902000804
:1000B00049020008490200084902000849020008F4
:1000C00049020008490200084902000849020008E4
:1000D00049020008790500084902000849020008A1
:1000E00049020008490200084902000849020008C4
:1000F00049020008490200084902000849020008B4
:1001000049020008490200084902000849020008A3
:100110004902000849020008490200084902000893
:100120004902000849020008490200084902000883
:100130004902000849020008490200084902000873
:100140004902000849020008490200084902000863
:100150004902000849020008490200084902000853
:100160004902000849020008490200084902000843
:100170004902000849020008490200084902000833
:10018000490200084902000800F002F800F03CF8BB
:100190000AA090E8000C82448344AAF10107DA45E2
:1001A00001D100F031F8AFF2090EBAE80F0013F0F8
:1001B000010F18BFFB1A43F0010318475405000054
:1001C00074050000103A24BF78C878C1FAD85207E5
:1001D00024BF30C830C144BF04680C6070470000C1
:1001E0000023002400250026103A28BF78C1FBD840
:1001F000520728BF30C148BF0B6070471FB500F0E1
:1002000081FA1FBD10B510BD00F035F81146FFF79B
:10021000F5FF00F04FFA00F053F803B4FFF7F2FFD8
:1002200003BC00F0E9F900000B48016841F47001DB
:1002300001600A480047FEE7FEE7FEE7FEE7FEE74B
:10024000FEE7FEE7FEE7FEE7FEE70000044805499B
:10025000034A054B7047000088ED00E08901000863
:100260003801002038050020380100207047704711
:10027000704770477047754600F028F8AE46050095
:100280006946534620F00700854618B020B5FFF7B1
:10029000DDFFBDE820404FF000064FF000074FF0B3
:1002A00000084FF0000B21F00701AC46ACE8C00994
:1002B000ACE8C009ACE8C009ACE8C0098D4670479D
:1002C0000446AFF300802046FFF7A7FF00487047C1
:1002D000D40000202DE9F0470C46DDE90867002135
:1002E00000258C4600BF60E04FF0010808FA01F5D8
:1002F00004EA050CAC4557D1D0F800804FEA410A1A
:100300004FF0030909FA0AF928EA0908C0F8008041
:10031000D0F800804FEA410902FA09F948EA0908D1
:10032000C0F80080012A01D0022A27D1D0F8088025
:100330004FEA410A4FF0030909FA0AF928EA0908C5
:10034000C0F80880D0F808804FEA410906FA09F998
:1003500048EA0908C0F80880D0F804904FF0010876
:1003600008FA01F829EA0809C0F80490D0F80480D6
:1003700003FA01F948EA0908C0F80480D0F80C80B3
:100380004FEA410A4FF0030909FA0AF928EA090875
:10039000C0F80C80D0F80C804FEA410907FA09F93F
:1003A00048EA0908C0F80C80491C10299CD3BDE814
:1003B000F08700001CB50B48006840F02000094998
:1003C00008600120032100230246CDE90010490204
:1003D0000548FFF77FFF0120044908600449C1F880
:1003E000A8021CBD3038024000140240A4824242E0
:1003F000008042424A0A52020243014B1A6070478F
:1004000008ED00E0F0B504460D4616461F461448B8
:10041000006840F0010012490860002010490831CE
:1004200008600F4800680F4908400D4908600E48F1
:10043000091D0860081F006820F48020091F08605B
:10044000002007490C3108603B46324629462046C9
:1004500000F00CF800210846FFF7CCFFF0BD0000CB
:1004600000380240FFFFF6FE10300024F0B50446CD
:100470000D46002100203D4E366846F480363B4F45
:100480003E6001E04E1CB1B2384E366806F40036CC
:100490001EB941F6FF76B142F4DB41F6FF76B14278
:1004A00001D1012060E0314E4036366846F080567A
:1004B0002E4F40373E602E4E366846F440462C4F55
:1004C0003E602A4E0836366846F41446274F0837F1
:1004D0003E60264E366826F08076244F3E6045EA20
:1004E00084160127C7EB520746EA074646EA036629
:1004F00046F480061D4F3F1D3E603E1F366846F0A5
:1005000080763F1F3E6000BF184E366806F00076CA
:10051000002EF9D0174E366846F48076154F3E60AF
:100520003E46366846F400763E603E46366846F4FF
:1005300080663E603E46366846F005063E600B4EDD
:100540000836366826F00306084F08373E603E46F8
:10055000366846F002063E6000BF044E0836366834
:1005600006F00C06082EF8D1F0BD0000003802405D
:1005700000700040003C02401C49098801F0200145
:1005800009B31A498988C8B21949098801F4004198
:10059000C9B91749098801F4804161B10A2803D01B
:1005A0000021134A118020E01149098841F40041DB
:1005B0000F4A118019E00D2806D10D49098841F430
:1005C00080410B4A118010E009490988C1F30D01EF
:1005D000084A505406490988491C054A11801146A9
:1005E0000988C72901DD00211180704700100140F2
:1005F000080000200C000020014600BF70470000EA
:100600004FF0E021096921F004014FF0E02211616F
:10061000C21700EB5272C2F3C702074B1A70194699
:10062000097801EB4102C2EBC1114FF6FF7202EAF9
:10063000C101024A11807047000000200200002022
:1006400070B504464FF4077094FBF0F0C6B24FF457
:10065000077094FBF0F100FB114085B205E04FF408
:10066000077000F009F8701EC6B2002EF7D115B160
:10067000284600F001F870BD01460D4A12884A4331
:100680004FF0E0235A6100229A6101221A6100BFF3
:100690004FF0E022106900F001021AB100F480323C
:1006A000002AF5D000224FF0E0231A619A617047CA
:1006B000020000200723022208214FF4A870FFF750
:1006C000A1FEA820FFF79CFFFFF774FE15E00020B5
:1006D0000A49086001200A49C1F8A8024FF4FA70DB
:1006E000FFF7AEFF01200549086000200449C1F86A
:1006F000A8024FF4FA70FFF7A3FFE8E7A482424292
:10070000008042424FF04070E1EE100A7047000056
:1007100030070008000000200C000000C4010008A1
:100720003C0700080C0000202C050000E001000838
:0C073000000000000000000000000000BD
:040000050800018965
:00000001FF
